:1000000010C01DC050C11BC01AC019C049C217C0C2
:1000100016C015C014C013C012C028C010C00FC035
:100020000EC011241FBECFEDCDBF20E0A0E6B0E092
:1000300001C01D92A836B207E1F7B5D024C3E0CFC6
:100040009093610080936000C09820E130E0C198F7
:10005000992314F4C29A01C0C298C19A880F991FBB
:1000600021503109A1F7C09AC09808951F920F92AC
:100070000FB60F9211248F9385B186958CBF369A57
:100080008F910F900FBE0F901F901895CF93DF9315
:10009000CDB7DD27C350CDBF80ED898381E08A8352
:1000A00062E0CE01019652D281ED898363E0CE01F8
:1000B00001964CD28A81982F92959F709770292F24
:1000C000220F220F920F990F8F70890F8093630078
:1000D0008B81982F92959F709370292F220F220F5A
:1000E000920F990F8F70890F80936400CD5FCDBF01
:1000F000DF91CF910895CF93DF93CDB7DD27C55022
:10010000CDBF80ED89831A821B8230916300832FDB
:1001100090E06DEC70E072D2292F269526952695F9
:10012000822F90E06DEC70E069D296959695969549
:10013000892F880F880F980F990F422F491B4770FE
:100140004295407F2AE0832F622F6AD2492B4C834D
:1001500030916400832F90E06DEC70E04FD2492F16
:10016000469546954695842F90E06DEC70E046D21A
:10017000969596959695892F880F880F980F990FC9
:10018000491B43704295407F832F622F49D29F7055
:10019000492B4D8365E0CE010196D8D1CB5FCDBF11
:1001A000DF91CF91089580E886BD16BC8ABB87E0B9
:1001B00087BB8BB38C628BBB96D183E380BF21E07E
:1001C00023BF80EA8CBF1FBC8BE08EBD12BC84E2D3
:1001D00094EF9BBD8ABD82E08CB989B380936600A1
:1001E0008CE282BB80E18BBF27B99FEC96B983B9C3
:1001F0007894FFCF8091650090E0019663E070E015
:100200001BD280936500089580916500813059F478
:10021000809164008F5F883118F4809364000895A2
:100220001092640008958230A1F4809163008F5F82
:100230008C3318F4809363000895109263008091CA
:1002400064008F5F883118F48093640008951092E1
:100250006400089580916500813061F480916400AC
:10026000811104C087E180936400089581508093D8
:10027000640008958230B1F48091630081110FC051
:1002800080916400811104C087E18093640003C001
:100290008150809364008BE38093630008958150C4
:1002A0008093630008951F920F920FB60F9211244E
:1002B0002F933F934F935F936F937F938F939F936E
:1002C000AF93BF93CF93EF93FF93C9B38091660031
:1002D000C82789B380936600CA9902C0C2FD8ADF2D
:1002E000CB9902C0C3FD90DFCD9902C0C5FDB2DF3E
:1002F000FF91EF91CF91BF91AF919F918F917F919E
:100300006F915F914F913F912F910F900FBE0F9082
:100310001F901895809162008F5F8093620080919A
:10032000650081112AC0B2DE2091630030E0220F07
:10033000331F22953295307F3227207F32278091DC
:100340006400282BC901880F991F880F991F880FF7
:10035000991F9927A901407E552755954795559591
:100360004795559547955595479555954795842BB0
:10037000952B2227822B932B91C0813009F04AC004
:10038000BADE8091620080FD1BC02091630030E0E6
:10039000220F331F22953295307F3227207F32275C
:1003A000C9019927959587959595879595958795F1
:1003B00095958795959587952227822B932B28C015
:1003C0002091630030E0220F331F22953295307F59
:1003D0003227207F322780916400282BC901880FA3
:1003E000991F880F991F880F991F9927A901407E8F
:1003F0005527559547955595479555954795559545
:10040000479555954795842B952B2227822B932B27
:10041000906844C0823009F03FC06DDE8091620078
:1004200080FD10C020916400822F90E0880F991FFA
:10043000880F991F880F991F229526952770822B68
:10044000992728C02091630030E0220F331F2295A6
:100450003295307F3227207F322780916400282B0D
:10046000C901880F991F880F991F880F991F992715
:10047000A901407E55275595479555954795559522
:1004800047955595479555954795842B952B22274C
:10049000822B932B906402C080E090E0D1DD089520
:1004A0001F920F920FB60F9211242F933F934F93E9
:1004B0005F936F937F938F939F93AF93BF93EF93CC
:1004C000FF9328DFFF91EF91BF91AF919F918F91A3
:1004D0007F916F915F914F913F912F910F900FBE40
:1004E0000F901F901895DE9ADC9AD49AD69A8FEFC7
:1004F0008FB98AE28DB980EF8EB908958EB98BE2FB
:1005000092E39A95F1F700008DB9CC9BFECF9AE269
:100510009A95F1F700C08DB9769BF2CF82E38A9568
:10052000F1F700008FB19FEF9FB9D69A0895DE983A
:10053000DC9ACC9BFECF8AE28A95F1F700C0DE9A66
:1005400082E38A95F1F7000081E008950F931F93ED
:10055000CF93DF93162F21E020936700FC012081C9
:1005600020FD04C021E0226020936700DC9ACC9B30
:10057000FECFF2E3FA95F1F70000DE982AE22A9521
:10058000F1F700C0DC98DE9AEC010FEF8091670074
:100590008370F1F0DC9888818FB980EFAFDFD69857
:1005A0008EEFACDF80FF0EC08091670080FF05C03A
:1005B00086E08093670080E01CC085E08093670040
:1005C00080E017C0809167008E7F809367000BC02A
:1005D000D69880EF93DF8883113011F40FB901C0F2
:1005E0001FB88EEF8BDF115021961111CFCF9FDFF7
:1005F00081E0DF91CF911F910F910895552700243D
:1006000080FF02C0060E571F660F771F6115710528
:1006100021F096958795009799F7952F802D08954D
:10062000991B79E004C0991F961708F0961B881F44
:100630007A95C9F78095089597FB072E16F40094D4
:1006400006D077FD08D00BD007FC05D03EF490957E
:1006500081959F4F0895709561957F4F0895AA1BCE
:10066000BB1B51E107C0AA1FBB1FA617B70710F09D
:10067000A61BB70B881F991F5A95A9F780959095CF
:0A068000BC01CD010895F894FFCFEE
:00000001FF
